{
  "_format": "hh-sol-artifact-1",
  "contractName": "AgriFiCreditNFT",
  "sourceName": "contracts/AgriFiCreditNFT.sol",
  "abi": [
    {
      "inputs": [
        {
          "internalType": "address",
          "name": "initialOwner",
          "type": "address"
        }
      ],
      "stateMutability": "nonpayable",
      "type": "constructor"
    },
    {
      "inputs": [
        {
          "internalType": "address",
          "name": "sender",
          "type": "address"
        },
        {
          "internalType": "uint256",
          "name": "tokenId",
          "type": "uint256"
        },
        {
          "internalType": "address",
          "name": "owner",
          "type": "address"
        }
      ],
      "name": "ERC721IncorrectOwner",
      "type": "error"
    },
    {
      "inputs": [
        {
          "internalType": "address",
          "name": "operator",
          "type": "address"
        },
        {
          "internalType": "uint256",
          "name": "tokenId",
          "type": "uint256"
        }
      ],
      "name": "ERC721InsufficientApproval",
      "type": "error"
    },
    {
      "inputs": [
        {
          "internalType": "address",
          "name": "approver",
          "type": "address"
        }
      ],
      "name": "ERC721InvalidApprover",
      "type": "error"
    },
    {
      "inputs": [
        {
          "internalType": "address",
          "name": "operator",
          "type": "address"
        }
      ],
      "name": "ERC721InvalidOperator",
      "type": "error"
    },
    {
      "inputs": [
        {
          "internalType": "address",
          "name": "owner",
          "type": "address"
        }
      ],
      "name": "ERC721InvalidOwner",
      "type": "error"
    },
    {
      "inputs": [
        {
          "internalType": "address",
          "name": "receiver",
          "type": "address"
        }
      ],
      "name": "ERC721InvalidReceiver",
      "type": "error"
    },
    {
      "inputs": [
        {
          "internalType": "address",
          "name": "sender",
          "type": "address"
        }
      ],
      "name": "ERC721InvalidSender",
      "type": "error"
    },
    {
      "inputs": [
        {
          "internalType": "uint256",
          "name": "tokenId",
          "type": "uint256"
        }
      ],
      "name": "ERC721NonexistentToken",
      "type": "error"
    },
    {
      "inputs": [
        {
          "internalType": "address",
          "name": "owner",
          "type": "address"
        }
      ],
      "name": "OwnableInvalidOwner",
      "type": "error"
    },
    {
      "inputs": [
        {
          "internalType": "address",
          "name": "account",
          "type": "address"
        }
      ],
      "name": "OwnableUnauthorizedAccount",
      "type": "error"
    },
    {
      "anonymous": false,
      "inputs": [
        {
          "indexed": true,
          "internalType": "address",
          "name": "owner",
          "type": "address"
        },
        {
          "indexed": true,
          "internalType": "address",
          "name": "approved",
          "type": "address"
        },
        {
          "indexed": true,
          "internalType": "uint256",
          "name": "tokenId",
          "type": "uint256"
        }
      ],
      "name": "Approval",
      "type": "event"
    },
    {
      "anonymous": false,
      "inputs": [
        {
          "indexed": true,
          "internalType": "address",
          "name": "owner",
          "type": "address"
        },
        {
          "indexed": true,
          "internalType": "address",
          "name": "operator",
          "type": "address"
        },
        {
          "indexed": false,
          "internalType": "bool",
          "name": "approved",
          "type": "bool"
        }
      ],
      "name": "ApprovalForAll",
      "type": "event"
    },
    {
      "anonymous": false,
      "inputs": [
        {
          "indexed": true,
          "internalType": "address",
          "name": "previousOwner",
          "type": "address"
        },
        {
          "indexed": true,
          "internalType": "address",
          "name": "newOwner",
          "type": "address"
        }
      ],
      "name": "OwnershipTransferred",
      "type": "event"
    },
    {
      "anonymous": false,
      "inputs": [
        {
          "indexed": true,
          "internalType": "address",
          "name": "from",
          "type": "address"
        },
        {
          "indexed": true,
          "internalType": "address",
          "name": "to",
          "type": "address"
        },
        {
          "indexed": true,
          "internalType": "uint256",
          "name": "tokenId",
          "type": "uint256"
        }
      ],
      "name": "Transfer",
      "type": "event"
    },
    {
      "inputs": [
        {
          "internalType": "address",
          "name": "to",
          "type": "address"
        },
        {
          "internalType": "uint256",
          "name": "tokenId",
          "type": "uint256"
        }
      ],
      "name": "approve",
      "outputs": [],
      "stateMutability": "nonpayable",
      "type": "function"
    },
    {
      "inputs": [
        {
          "internalType": "address",
          "name": "owner",
          "type": "address"
        }
      ],
      "name": "balanceOf",
      "outputs": [
        {
          "internalType": "uint256",
          "name": "",
          "type": "uint256"
        }
      ],
      "stateMutability": "view",
      "type": "function"
    },
    {
      "inputs": [
        {
          "internalType": "uint256",
          "name": "",
          "type": "uint256"
        }
      ],
      "name": "creditMetadata",
      "outputs": [
        {
          "internalType": "string",
          "name": "cropType",
          "type": "string"
        },
        {
          "internalType": "uint256",
          "name": "duration",
          "type": "uint256"
        },
        {
          "internalType": "uint256",
          "name": "timestamp",
          "type": "uint256"
        }
      ],
      "stateMutability": "view",
      "type": "function"
    },
    {
      "inputs": [
        {
          "internalType": "address",
          "name": "",
          "type": "address"
        }
      ],
      "name": "creditScore",
      "outputs": [
        {
          "internalType": "uint256",
          "name": "",
          "type": "uint256"
        }
      ],
      "stateMutability": "view",
      "type": "function"
    },
    {
      "inputs": [
        {
          "internalType": "uint256",
          "name": "tokenId",
          "type": "uint256"
        }
      ],
      "name": "getApproved",
      "outputs": [
        {
          "internalType": "address",
          "name": "",
          "type": "address"
        }
      ],
      "stateMutability": "view",
      "type": "function"
    },
    {
      "inputs": [
        {
          "internalType": "address",
          "name": "owner",
          "type": "address"
        },
        {
          "internalType": "address",
          "name": "operator",
          "type": "address"
        }
      ],
      "name": "isApprovedForAll",
      "outputs": [
        {
          "internalType": "bool",
          "name": "",
          "type": "bool"
        }
      ],
      "stateMutability": "view",
      "type": "function"
    },
    {
      "inputs": [],
      "name": "loanContract",
      "outputs": [
        {
          "internalType": "address",
          "name": "",
          "type": "address"
        }
      ],
      "stateMutability": "view",
      "type": "function"
    },
    {
      "inputs": [
        {
          "internalType": "address",
          "name": "farmer",
          "type": "address"
        },
        {
          "internalType": "string",
          "name": "cropType",
          "type": "string"
        },
        {
          "internalType": "uint256",
          "name": "duration",
          "type": "uint256"
        }
      ],
      "name": "mintCreditNFT",
      "outputs": [],
      "stateMutability": "nonpayable",
      "type": "function"
    },
    {
      "inputs": [],
      "name": "name",
      "outputs": [
        {
          "internalType": "string",
          "name": "",
          "type": "string"
        }
      ],
      "stateMutability": "view",
      "type": "function"
    },
    {
      "inputs": [],
      "name": "owner",
      "outputs": [
        {
          "internalType": "address",
          "name": "",
          "type": "address"
        }
      ],
      "stateMutability": "view",
      "type": "function"
    },
    {
      "inputs": [
        {
          "internalType": "uint256",
          "name": "tokenId",
          "type": "uint256"
        }
      ],
      "name": "ownerOf",
      "outputs": [
        {
          "internalType": "address",
          "name": "",
          "type": "address"
        }
      ],
      "stateMutability": "view",
      "type": "function"
    },
    {
      "inputs": [],
      "name": "renounceOwnership",
      "outputs": [],
      "stateMutability": "nonpayable",
      "type": "function"
    },
    {
      "inputs": [
        {
          "internalType": "address",
          "name": "from",
          "type": "address"
        },
        {
          "internalType": "address",
          "name": "to",
          "type": "address"
        },
        {
          "internalType": "uint256",
          "name": "tokenId",
          "type": "uint256"
        }
      ],
      "name": "safeTransferFrom",
      "outputs": [],
      "stateMutability": "nonpayable",
      "type": "function"
    },
    {
      "inputs": [
        {
          "internalType": "address",
          "name": "from",
          "type": "address"
        },
        {
          "internalType": "address",
          "name": "to",
          "type": "address"
        },
        {
          "internalType": "uint256",
          "name": "tokenId",
          "type": "uint256"
        },
        {
          "internalType": "bytes",
          "name": "data",
          "type": "bytes"
        }
      ],
      "name": "safeTransferFrom",
      "outputs": [],
      "stateMutability": "nonpayable",
      "type": "function"
    },
    {
      "inputs": [
        {
          "internalType": "address",
          "name": "operator",
          "type": "address"
        },
        {
          "internalType": "bool",
          "name": "approved",
          "type": "bool"
        }
      ],
      "name": "setApprovalForAll",
      "outputs": [],
      "stateMutability": "nonpayable",
      "type": "function"
    },
    {
      "inputs": [
        {
          "internalType": "address",
          "name": "_loanContract",
          "type": "address"
        }
      ],
      "name": "setLoanContract",
      "outputs": [],
      "stateMutability": "nonpayable",
      "type": "function"
    },
    {
      "inputs": [
        {
          "internalType": "bytes4",
          "name": "interfaceId",
          "type": "bytes4"
        }
      ],
      "name": "supportsInterface",
      "outputs": [
        {
          "internalType": "bool",
          "name": "",
          "type": "bool"
        }
      ],
      "stateMutability": "view",
      "type": "function"
    },
    {
      "inputs": [],
      "name": "symbol",
      "outputs": [
        {
          "internalType": "string",
          "name": "",
          "type": "string"
        }
      ],
      "stateMutability": "view",
      "type": "function"
    },
    {
      "inputs": [
        {
          "internalType": "uint256",
          "name": "tokenId",
          "type": "uint256"
        }
      ],
      "name": "tokenURI",
      "outputs": [
        {
          "internalType": "string",
          "name": "",
          "type": "string"
        }
      ],
      "stateMutability": "view",
      "type": "function"
    },
    {
      "inputs": [
        {
          "internalType": "address",
          "name": "from",
          "type": "address"
        },
        {
          "internalType": "address",
          "name": "to",
          "type": "address"
        },
        {
          "internalType": "uint256",
          "name": "tokenId",
          "type": "uint256"
        }
      ],
      "name": "transferFrom",
      "outputs": [],
      "stateMutability": "nonpayable",
      "type": "function"
    },
    {
      "inputs": [
        {
          "internalType": "address",
          "name": "newOwner",
          "type": "address"
        }
      ],
      "name": "transferOwnership",
      "outputs": [],
      "stateMutability": "nonpayable",
      "type": "function"
    }
  ],
  "bytecode": "0x60806040523480156200001157600080fd5b50604051620036c6380380620036c6833981810160405281019062000037919062000288565b806040518060400160405280600f81526020017f4167726946694372656469744e465400000000000000000000000000000000008152506040518060400160405280600481526020017f41475249000000000000000000000000000000000000000000000000000000008152508160009081620000b5919062000534565b508060019081620000c7919062000534565b505050600073ffffffffffffffffffffffffffffffffffffffff168173ffffffffffffffffffffffffffffffffffffffff16036200013f5760006040517f1e4fbdf70000000000000000000000000000000000000000000000000000000081526004016200013691906200062c565b60405180910390fd5b62000150816200015860201b60201c565b505062000649565b6000600660009054906101000a900473ffffffffffffffffffffffffffffffffffffffff16905081600660006101000a81548173ffffffffffffffffffffffffffffffffffffffff021916908373ffffffffffffffffffffffffffffffffffffffff1602179055508173ffffffffffffffffffffffffffffffffffffffff168173ffffffffffffffffffffffffffffffffffffffff167f8be0079c531659141344cd1fd0a4f28419497f9722a3daafe3b4186f6b6457e060405160405180910390a35050565b600080fd5b600073ffffffffffffffffffffffffffffffffffffffff82169050919050565b6000620002508262000223565b9050919050565b620002628162000243565b81146200026e57600080fd5b50565b600081519050620002828162000257565b92915050565b600060208284031215620002a157620002a06200021e565b5b6000620002b18482850162000271565b91505092915050565b600081519050919050565b7f4e487b7100000000000000000000000000000000000000000000000000000000600052604160045260246000fd5b7f4e487b7100000000000000000000000000000000000000000000000000000000600052602260045260246000fd5b600060028204905060018216806200033c57607f821691505b602082108103620003525762000351620002f4565b5b50919050565b60008190508160005260206000209050919050565b60006020601f8301049050919050565b600082821b905092915050565b600060088302620003bc7fffffffffffffffffffffffffffffffffffffffffffffffffffffffffffffffff826200037d565b620003c886836200037d565b95508019841693508086168417925050509392505050565b6000819050919050565b6000819050919050565b6000620004156200040f6200040984620003e0565b620003ea565b620003e0565b9050919050565b6000819050919050565b6200043183620003f4565b6200044962000440826200041c565b8484546200038a565b825550505050565b600090565b6200046062000451565b6200046d81848462000426565b505050565b5b8181101562000495576200048960008262000456565b60018101905062000473565b5050565b601f821115620004e457620004ae8162000358565b620004b9846200036d565b81016020851015620004c9578190505b620004e1620004d8856200036d565b83018262000472565b50505b505050565b600082821c905092915050565b60006200050960001984600802620004e9565b1980831691505092915050565b6000620005248383620004f6565b9150826002028217905092915050565b6200053f82620002ba565b67ffffffffffffffff8111156200055b576200055a620002c5565b5b62000567825462000323565b6200057482828562000499565b600060209050601f831160018114620005ac576000841562000597578287015190505b620005a3858262000516565b86555062000613565b601f198416620005bc8662000358565b60005b82811015620005e657848901518255600182019150602085019450602081019050620005bf565b8683101562000606578489015162000602601f891682620004f6565b8355505b6001600288020188555050505b505050505050565b620006268162000243565b82525050565b60006020820190506200064360008301846200061b565b92915050565b61306d80620006596000396000f3fe608060405234801561001057600080fd5b50600436106101375760003560e01c8063715018a6116100b8578063c87b56dd1161007c578063c87b56dd14610326578063ceb6c7e014610356578063d20bc7a214610372578063e985e9c5146103a4578063f2fde38b146103d4578063f7e590ee146103f057610137565b8063715018a6146102a85780638da5cb5b146102b257806395d89b41146102d0578063a22cb465146102ee578063b88d4fde1461030a57610137565b8063253f284b116100ff578063253f284b146101f257806331d388061461021057806342842e0e1461022c5780636352211e1461024857806370a082311461027857610137565b806301ffc9a71461013c57806306fdde031461016c578063081812fc1461018a578063095ea7b3146101ba57806323b872dd146101d6575b600080fd5b61015660048036038101906101519190611e16565b610420565b6040516101639190611e5e565b60405180910390f35b610174610502565b6040516101819190611f09565b60405180910390f35b6101a4600480360381019061019f9190611f61565b610594565b6040516101b19190611fcf565b60405180910390f35b6101d460048036038101906101cf9190612016565b6105b0565b005b6101f060048036038101906101eb9190612056565b6105c6565b005b6101fa6106c8565b6040516102079190611fcf565b60405180910390f35b61022a600480360381019061022591906120a9565b6106ee565b005b61024660048036038101906102419190612056565b6107a9565b005b610262600480360381019061025d9190611f61565b6107c9565b60405161026f9190611fcf565b60405180910390f35b610292600480360381019061028d91906120a9565b6107db565b60405161029f91906120e5565b60405180910390f35b6102b0610895565b005b6102ba6108a9565b6040516102c79190611fcf565b60405180910390f35b6102d86108d3565b6040516102e59190611f09565b60405180910390f35b6103086004803603810190610303919061212c565b610965565b005b610324600480360381019061031f91906122a1565b61097b565b005b610340600480360381019061033b9190611f61565b6109a0565b60405161034d9190611f09565b60405180910390f35b610370600480360381019061036b91906123c5565b610b33565b005b61038c60048036038101906103879190611f61565b610d13565b60405161039b93929190612434565b60405180910390f35b6103be60048036038101906103b99190612472565b610dc5565b6040516103cb9190611e5e565b60405180910390f35b6103ee60048036038101906103e991906120a9565b610e59565b005b61040a600480360381019061040591906120a9565b610edf565b60405161041791906120e5565b60405180910390f35b60007f80ac58cd000000000000000000000000000000000000000000000000000000007bffffffffffffffffffffffffffffffffffffffffffffffffffffffff1916827bffffffffffffffffffffffffffffffffffffffffffffffffffffffff191614806104eb57507f5b5e139f000000000000000000000000000000000000000000000000000000007bffffffffffffffffffffffffffffffffffffffffffffffffffffffff1916827bffffffffffffffffffffffffffffffffffffffffffffffffffffffff1916145b806104fb57506104fa82610ef7565b5b9050919050565b606060008054610511906124e1565b80601f016020809104026020016040519081016040528092919081815260200182805461053d906124e1565b801561058a5780601f1061055f5761010080835404028352916020019161058a565b820191906000526020600020905b81548152906001019060200180831161056d57829003601f168201915b5050505050905090565b600061059f82610f61565b506105a982610fe9565b9050919050565b6105c282826105bd611026565b61102e565b5050565b600073ffffffffffffffffffffffffffffffffffffffff168273ffffffffffffffffffffffffffffffffffffffff16036106385760006040517f64a0ae9200000000000000000000000000000000000000000000000000000000815260040161062f9190611fcf565b60405180910390fd5b600061064c8383610647611026565b611040565b90508373ffffffffffffffffffffffffffffffffffffffff168173ffffffffffffffffffffffffffffffffffffffff16146106c2578382826040517f64283d7b0000000000000000000000000000000000000000000000000000000081526004016106b993929190612512565b60405180910390fd5b50505050565b600960009054906101000a900473ffffffffffffffffffffffffffffffffffffffff1681565b6106f661125a565b600073ffffffffffffffffffffffffffffffffffffffff168173ffffffffffffffffffffffffffffffffffffffff1603610765576040517f08c379a000000000000000000000000000000000000000000000000000000000815260040161075c90612595565b60405180910390fd5b80600960006101000a81548173ffffffffffffffffffffffffffffffffffffffff021916908373ffffffffffffffffffffffffffffffffffffffff16021790555050565b6107c48383836040518060200160405280600081525061097b565b505050565b60006107d482610f61565b9050919050565b60008073ffffffffffffffffffffffffffffffffffffffff168273ffffffffffffffffffffffffffffffffffffffff160361084e5760006040517f89c62b640000000000000000000000000000000000000000000000000000000081526004016108459190611fcf565b60405180910390fd5b600360008373ffffffffffffffffffffffffffffffffffffffff1673ffffffffffffffffffffffffffffffffffffffff168152602001908152602001600020549050919050565b61089d61125a565b6108a760006112e1565b565b6000600660009054906101000a900473ffffffffffffffffffffffffffffffffffffffff16905090565b6060600180546108e2906124e1565b80601f016020809104026020016040519081016040528092919081815260200182805461090e906124e1565b801561095b5780601f106109305761010080835404028352916020019161095b565b820191906000526020600020905b81548152906001019060200180831161093e57829003601f168201915b5050505050905090565b610977610970611026565b83836113a7565b5050565b6109868484846105c6565b61099a610991611026565b85858585611516565b50505050565b6060600073ffffffffffffffffffffffffffffffffffffffff166109c3836116c7565b73ffffffffffffffffffffffffffffffffffffffff1603610a19576040517f08c379a0000000000000000000000000000000000000000000000000000000008152600401610a1090612601565b60405180910390fd5b6000600a6000848152602001908152602001600020604051806060016040529081600082018054610a49906124e1565b80601f0160208091040260200160405190810160405280929190818152602001828054610a75906124e1565b8015610ac25780601f10610a9757610100808354040283529160200191610ac2565b820191906000526020600020905b815481529060010190602001808311610aa557829003601f168201915b50505050508152602001600182015481526020016002820154815250509050610aea83611704565b8160000151610afc8360200151611704565b610b098460400151611704565b604051602001610b1c9493929190612a39565b604051602081830303815290604052915050919050565b600960009054906101000a900473ffffffffffffffffffffffffffffffffffffffff1673ffffffffffffffffffffffffffffffffffffffff163373ffffffffffffffffffffffffffffffffffffffff1614610bc3576040517f08c379a0000000000000000000000000000000000000000000000000000000008152600401610bba90612b47565b60405180910390fd5b600073ffffffffffffffffffffffffffffffffffffffff168373ffffffffffffffffffffffffffffffffffffffff1603610c32576040517f08c379a0000000000000000000000000000000000000000000000000000000008152600401610c2990612bb3565b60405180910390fd5b60076000815480929190610c4590612c02565b919050555060006007549050610c5b84826117d2565b604051806060016040528084815260200183815260200142815250600a60008381526020019081526020016000206000820151816000019081610c9e9190612df6565b5060208201518160010155604082015181600201559050506001600860008673ffffffffffffffffffffffffffffffffffffffff1673ffffffffffffffffffffffffffffffffffffffff1681526020019081526020016000206000828254610d069190612ec8565b9250508190555050505050565b600a602052806000526040600020600091509050806000018054610d36906124e1565b80601f0160208091040260200160405190810160405280929190818152602001828054610d62906124e1565b8015610daf5780601f10610d8457610100808354040283529160200191610daf565b820191906000526020600020905b815481529060010190602001808311610d9257829003601f168201915b5050505050908060010154908060020154905083565b6000600560008473ffffffffffffffffffffffffffffffffffffffff1673ffffffffffffffffffffffffffffffffffffffff16815260200190815260200160002060008373ffffffffffffffffffffffffffffffffffffffff1673ffffffffffffffffffffffffffffffffffffffff16815260200190815260200160002060009054906101000a900460ff16905092915050565b610e6161125a565b600073ffffffffffffffffffffffffffffffffffffffff168173ffffffffffffffffffffffffffffffffffffffff1603610ed35760006040517f1e4fbdf7000000000000000000000000000000000000000000000000000000008152600401610eca9190611fcf565b60405180910390fd5b610edc816112e1565b50565b60086020528060005260406000206000915090505481565b60007f01ffc9a7000000000000000000000000000000000000000000000000000000007bffffffffffffffffffffffffffffffffffffffffffffffffffffffff1916827bffffffffffffffffffffffffffffffffffffffffffffffffffffffff1916149050919050565b600080610f6d836116c7565b9050600073ffffffffffffffffffffffffffffffffffffffff168173ffffffffffffffffffffffffffffffffffffffff1603610fe057826040517f7e273289000000000000000000000000000000000000000000000000000000008152600401610fd791906120e5565b60405180910390fd5b80915050919050565b60006004600083815260200190815260200160002060009054906101000a900473ffffffffffffffffffffffffffffffffffffffff169050919050565b600033905090565b61103b83838360016117f0565b505050565b60008061104c846116c7565b9050600073ffffffffffffffffffffffffffffffffffffffff168373ffffffffffffffffffffffffffffffffffffffff161461108e5761108d8184866119b5565b5b600073ffffffffffffffffffffffffffffffffffffffff168173ffffffffffffffffffffffffffffffffffffffff161461111f576110d06000856000806117f0565b6001600360008373ffffffffffffffffffffffffffffffffffffffff1673ffffffffffffffffffffffffffffffffffffffff168152602001908152602001600020600082825403925050819055505b600073ffffffffffffffffffffffffffffffffffffffff168573ffffffffffffffffffffffffffffffffffffffff16146111a2576001600360008773ffffffffffffffffffffffffffffffffffffffff1673ffffffffffffffffffffffffffffffffffffffff168152602001908152602001600020600082825401925050819055505b846002600086815260200190815260200160002060006101000a81548173ffffffffffffffffffffffffffffffffffffffff021916908373ffffffffffffffffffffffffffffffffffffffff160217905550838573ffffffffffffffffffffffffffffffffffffffff168273ffffffffffffffffffffffffffffffffffffffff167fddf252ad1be2c89b69c2b068fc378daa952ba7f163c4a11628f55a4df523b3ef60405160405180910390a4809150509392505050565b611262611026565b73ffffffffffffffffffffffffffffffffffffffff166112806108a9565b73ffffffffffffffffffffffffffffffffffffffff16146112df576112a3611026565b6040517f118cdaa70000000000000000000000000000000000000000000000000000000081526004016112d69190611fcf565b60405180910390fd5b565b6000600660009054906101000a900473ffffffffffffffffffffffffffffffffffffffff16905081600660006101000a81548173ffffffffffffffffffffffffffffffffffffffff021916908373ffffffffffffffffffffffffffffffffffffffff1602179055508173ffffffffffffffffffffffffffffffffffffffff168173ffffffffffffffffffffffffffffffffffffffff167f8be0079c531659141344cd1fd0a4f28419497f9722a3daafe3b4186f6b6457e060405160405180910390a35050565b600073ffffffffffffffffffffffffffffffffffffffff168273ffffffffffffffffffffffffffffffffffffffff160361141857816040517f5b08ba1800000000000000000000000000000000000000000000000000000000815260040161140f9190611fcf565b60405180910390fd5b80600560008573ffffffffffffffffffffffffffffffffffffffff1673ffffffffffffffffffffffffffffffffffffffff16815260200190815260200160002060008473ffffffffffffffffffffffffffffffffffffffff1673ffffffffffffffffffffffffffffffffffffffff16815260200190815260200160002060006101000a81548160ff0219169083151502179055508173ffffffffffffffffffffffffffffffffffffffff168373ffffffffffffffffffffffffffffffffffffffff167f17307eab39ab6107e8899845ad3d59bd9653f200f220920489ca2b5937696c31836040516115099190611e5e565b60405180910390a3505050565b60008373ffffffffffffffffffffffffffffffffffffffff163b11156116c0578273ffffffffffffffffffffffffffffffffffffffff1663150b7a02868685856040518563ffffffff1660e01b81526004016115759493929190612f51565b6020604051808303816000875af19250505080156115b157506040513d601f19601f820116820180604052508101906115ae9190612fb2565b60015b611635573d80600081146115e1576040519150601f19603f3d011682016040523d82523d6000602084013e6115e6565b606091505b50600081510361162d57836040517f64a0ae920000000000000000000000000000000000000000000000000000000081526004016116249190611fcf565b60405180910390fd5b805160208201fd5b63150b7a0260e01b7bffffffffffffffffffffffffffffffffffffffffffffffffffffffff1916817bffffffffffffffffffffffffffffffffffffffffffffffffffffffff1916146116be57836040517f64a0ae920000000000000000000000000000000000000000000000000000000081526004016116b59190611fcf565b60405180910390fd5b505b5050505050565b60006002600083815260200190815260200160002060009054906101000a900473ffffffffffffffffffffffffffffffffffffffff169050919050565b60606000600161171384611a79565b01905060008167ffffffffffffffff81111561173257611731612176565b5b6040519080825280601f01601f1916602001820160405280156117645781602001600182028036833780820191505090505b509050600082602083010190505b6001156117c7578080600190039150507f3031323334353637383961626364656600000000000000000000000000000000600a86061a8153600a85816117bb576117ba612fdf565b5b04945060008503611772575b819350505050919050565b6117ec828260405180602001604052806000815250611bcc565b5050565b80806118295750600073ffffffffffffffffffffffffffffffffffffffff168273ffffffffffffffffffffffffffffffffffffffff1614155b1561195d57600061183984610f61565b9050600073ffffffffffffffffffffffffffffffffffffffff168373ffffffffffffffffffffffffffffffffffffffff16141580156118a457508273ffffffffffffffffffffffffffffffffffffffff168173ffffffffffffffffffffffffffffffffffffffff1614155b80156118b757506118b58184610dc5565b155b156118f957826040517fa9fbf51f0000000000000000000000000000000000000000000000000000000081526004016118f09190611fcf565b60405180910390fd5b811561195b57838573ffffffffffffffffffffffffffffffffffffffff168273ffffffffffffffffffffffffffffffffffffffff167f8c5be1e5ebec7d5bd14f71427d1e84f3dd0314c0f7b2291e5b200ac8c7c3b92560405160405180910390a45b505b836004600085815260200190815260200160002060006101000a81548173ffffffffffffffffffffffffffffffffffffffff021916908373ffffffffffffffffffffffffffffffffffffffff16021790555050505050565b6119c0838383611bf0565b611a7457600073ffffffffffffffffffffffffffffffffffffffff168373ffffffffffffffffffffffffffffffffffffffff1603611a3557806040517f7e273289000000000000000000000000000000000000000000000000000000008152600401611a2c91906120e5565b60405180910390fd5b81816040517f177e802f000000000000000000000000000000000000000000000000000000008152600401611a6b92919061300e565b60405180910390fd5b505050565b600080600090507a184f03e93ff9f4daa797ed6e38ed64bf6a1f0100000000000000008310611ad7577a184f03e93ff9f4daa797ed6e38ed64bf6a1f0100000000000000008381611acd57611acc612fdf565b5b0492506040810190505b6d04ee2d6d415b85acef81000000008310611b14576d04ee2d6d415b85acef81000000008381611b0a57611b09612fdf565b5b0492506020810190505b662386f26fc100008310611b4357662386f26fc100008381611b3957611b38612fdf565b5b0492506010810190505b6305f5e1008310611b6c576305f5e1008381611b6257611b61612fdf565b5b0492506008810190505b6127108310611b91576127108381611b8757611b86612fdf565b5b0492506004810190505b60648310611bb45760648381611baa57611ba9612fdf565b5b0492506002810190505b600a8310611bc3576001810190505b80915050919050565b611bd68383611cb1565b611beb611be1611026565b6000858585611516565b505050565b60008073ffffffffffffffffffffffffffffffffffffffff168373ffffffffffffffffffffffffffffffffffffffff1614158015611ca857508273ffffffffffffffffffffffffffffffffffffffff168473ffffffffffffffffffffffffffffffffffffffff161480611c695750611c688484610dc5565b5b80611ca757508273ffffffffffffffffffffffffffffffffffffffff16611c8f83610fe9565b73ffffffffffffffffffffffffffffffffffffffff16145b5b90509392505050565b600073ffffffffffffffffffffffffffffffffffffffff168273ffffffffffffffffffffffffffffffffffffffff1603611d235760006040517f64a0ae92000000000000000000000000000000000000000000000000000000008152600401611d1a9190611fcf565b60405180910390fd5b6000611d3183836000611040565b9050600073ffffffffffffffffffffffffffffffffffffffff168173ffffffffffffffffffffffffffffffffffffffff1614611da55760006040517f73c6ac6e000000000000000000000000000000000000000000000000000000008152600401611d9c9190611fcf565b60405180910390fd5b505050565b6000604051905090565b600080fd5b600080fd5b60007fffffffff0000000000000000000000000000000000000000000000000000000082169050919050565b611df381611dbe565b8114611dfe57600080fd5b50565b600081359050611e1081611dea565b92915050565b600060208284031215611e2c57611e2b611db4565b5b6000611e3a84828501611e01565b91505092915050565b60008115159050919050565b611e5881611e43565b82525050565b6000602082019050611e736000830184611e4f565b92915050565b600081519050919050565b600082825260208201905092915050565b60005b83811015611eb3578082015181840152602081019050611e98565b60008484015250505050565b6000601f19601f8301169050919050565b6000611edb82611e79565b611ee58185611e84565b9350611ef5818560208601611e95565b611efe81611ebf565b840191505092915050565b60006020820190508181036000830152611f238184611ed0565b905092915050565b6000819050919050565b611f3e81611f2b565b8114611f4957600080fd5b50565b600081359050611f5b81611f35565b92915050565b600060208284031215611f7757611f76611db4565b5b6000611f8584828501611f4c565b91505092915050565b600073ffffffffffffffffffffffffffffffffffffffff82169050919050565b6000611fb982611f8e565b9050919050565b611fc981611fae565b82525050565b6000602082019050611fe46000830184611fc0565b92915050565b611ff381611fae565b8114611ffe57600080fd5b50565b60008135905061201081611fea565b92915050565b6000806040838503121561202d5761202c611db4565b5b600061203b85828601612001565b925050602061204c85828601611f4c565b9150509250929050565b60008060006060848603121561206f5761206e611db4565b5b600061207d86828701612001565b935050602061208e86828701612001565b925050604061209f86828701611f4c565b9150509250925092565b6000602082840312156120bf576120be611db4565b5b60006120cd84828501612001565b91505092915050565b6120df81611f2b565b82525050565b60006020820190506120fa60008301846120d6565b92915050565b61210981611e43565b811461211457600080fd5b50565b60008135905061212681612100565b92915050565b6000806040838503121561214357612142611db4565b5b600061215185828601612001565b925050602061216285828601612117565b9150509250929050565b600080fd5b600080fd5b7f4e487b7100000000000000000000000000000000000000000000000000000000600052604160045260246000fd5b6121ae82611ebf565b810181811067ffffffffffffffff821117156121cd576121cc612176565b5b80604052505050565b60006121e0611daa565b90506121ec82826121a5565b919050565b600067ffffffffffffffff82111561220c5761220b612176565b5b61221582611ebf565b9050602081019050919050565b82818337600083830152505050565b600061224461223f846121f1565b6121d6565b9050828152602081018484840111156122605761225f612171565b5b61226b848285612222565b509392505050565b600082601f8301126122885761228761216c565b5b8135612298848260208601612231565b91505092915050565b600080600080608085870312156122bb576122ba611db4565b5b60006122c987828801612001565b94505060206122da87828801612001565b93505060406122eb87828801611f4c565b925050606085013567ffffffffffffffff81111561230c5761230b611db9565b5b61231887828801612273565b91505092959194509250565b600067ffffffffffffffff82111561233f5761233e612176565b5b61234882611ebf565b9050602081019050919050565b600061236861236384612324565b6121d6565b90508281526020810184848401111561238457612383612171565b5b61238f848285612222565b509392505050565b600082601f8301126123ac576123ab61216c565b5b81356123bc848260208601612355565b91505092915050565b6000806000606084860312156123de576123dd611db4565b5b60006123ec86828701612001565b935050602084013567ffffffffffffffff81111561240d5761240c611db9565b5b61241986828701612397565b925050604061242a86828701611f4c565b9150509250925092565b6000606082019050818103600083015261244e8186611ed0565b905061245d60208301856120d6565b61246a60408301846120d6565b949350505050565b6000806040838503121561248957612488611db4565b5b600061249785828601612001565b92505060206124a885828601612001565b9150509250929050565b7f4e487b7100000000000000000000000000000000000000000000000000000000600052602260045260246000fd5b600060028204905060018216806124f957607f821691505b60208210810361250c5761250b6124b2565b5b50919050565b60006060820190506125276000830186611fc0565b61253460208301856120d6565b6125416040830184611fc0565b949350505050565b7f496e76616c696420616464726573730000000000000000000000000000000000600082015250565b600061257f600f83611e84565b915061258a82612549565b602082019050919050565b600060208201905081810360008301526125ae81612572565b9050919050565b7f546f6b656e20646f6573206e6f74206578697374000000000000000000000000600082015250565b60006125eb601483611e84565b91506125f6826125b5565b602082019050919050565b6000602082019050818103600083015261261a816125de565b9050919050565b600081905092915050565b7f646174613a6170706c69636174696f6e2f6a736f6e2c7b000000000000000000600082015250565b6000612662601783612621565b915061266d8261262c565b601782019050919050565b7f226e616d65223a2241677269466920437265646974204e465420230000000000600082015250565b60006126ae601b83612621565b91506126b982612678565b601b82019050919050565b60006126cf82611e79565b6126d98185612621565b93506126e9818560208601611e95565b80840191505092915050565b7f222c000000000000000000000000000000000000000000000000000000000000600082015250565b600061272b600283612621565b9150612736826126f5565b600282019050919050565b7f226465736372697074696f6e223a22437265646974204e465420666f7220737560008201527f636365737366756c206c6f616e2072657061796d656e742e222c000000000000602082015250565b600061279d603a83612621565b91506127a882612741565b603a82019050919050565b7f2261747472696275746573223a5b000000000000000000000000000000000000600082015250565b60006127e9600e83612621565b91506127f4826127b3565b600e82019050919050565b7f7b2274726169745f74797065223a2243726f702054797065222c2276616c756560008201527f223a220000000000000000000000000000000000000000000000000000000000602082015250565b600061285b602383612621565b9150612866826127ff565b602382019050919050565b7f227d2c0000000000000000000000000000000000000000000000000000000000600082015250565b60006128a7600383612621565b91506128b282612871565b600382019050919050565b7f7b2274726169745f74797065223a224475726174696f6e222c2276616c75652260008201527f3a22000000000000000000000000000000000000000000000000000000000000602082015250565b6000612919602283612621565b9150612924826128bd565b602282019050919050565b7f7b2274726169745f74797065223a2254696d657374616d70222c2276616c756560008201527f223a220000000000000000000000000000000000000000000000000000000000602082015250565b600061298b602383612621565b91506129968261292f565b602382019050919050565b7f227d000000000000000000000000000000000000000000000000000000000000600082015250565b60006129d7600283612621565b91506129e2826129a1565b600282019050919050565b7f5d7d000000000000000000000000000000000000000000000000000000000000600082015250565b6000612a23600283612621565b9150612a2e826129ed565b600282019050919050565b6000612a4482612655565b9150612a4f826126a1565b9150612a5b82876126c4565b9150612a668261271e565b9150612a7182612790565b9150612a7c826127dc565b9150612a878261284e565b9150612a9382866126c4565b9150612a9e8261289a565b9150612aa98261290c565b9150612ab582856126c4565b9150612ac08261289a565b9150612acb8261297e565b9150612ad782846126c4565b9150612ae2826129ca565b9150612aed82612a16565b915081905095945050505050565b7f4f6e6c79204c6f616e20636f6e74726163742063616e206d696e740000000000600082015250565b6000612b31601b83611e84565b9150612b3c82612afb565b602082019050919050565b60006020820190508181036000830152612b6081612b24565b9050919050565b7f496e76616c6964206661726d6572206164647265737300000000000000000000600082015250565b6000612b9d601683611e84565b9150612ba882612b67565b602082019050919050565b60006020820190508181036000830152612bcc81612b90565b9050919050565b7f4e487b7100000000000000000000000000000000000000000000000000000000600052601160045260246000fd5b6000612c0d82611f2b565b91507fffffffffffffffffffffffffffffffffffffffffffffffffffffffffffffffff8203612c3f57612c3e612bd3565b5b600182019050919050565b60008190508160005260206000209050919050565b60006020601f8301049050919050565b600082821b905092915050565b600060088302612cac7fffffffffffffffffffffffffffffffffffffffffffffffffffffffffffffffff82612c6f565b612cb68683612c6f565b95508019841693508086168417925050509392505050565b6000819050919050565b6000612cf3612cee612ce984611f2b565b612cce565b611f2b565b9050919050565b6000819050919050565b612d0d83612cd8565b612d21612d1982612cfa565b848454612c7c565b825550505050565b600090565b612d36612d29565b612d41818484612d04565b505050565b5b81811015612d6557612d5a600082612d2e565b600181019050612d47565b5050565b601f821115612daa57612d7b81612c4a565b612d8484612c5f565b81016020851015612d93578190505b612da7612d9f85612c5f565b830182612d46565b50505b505050565b600082821c905092915050565b6000612dcd60001984600802612daf565b1980831691505092915050565b6000612de68383612dbc565b9150826002028217905092915050565b612dff82611e79565b67ffffffffffffffff811115612e1857612e17612176565b5b612e2282546124e1565b612e2d828285612d69565b600060209050601f831160018114612e605760008415612e4e578287015190505b612e588582612dda565b865550612ec0565b601f198416612e6e86612c4a565b60005b82811015612e9657848901518255600182019150602085019450602081019050612e71565b86831015612eb35784890151612eaf601f891682612dbc565b8355505b6001600288020188555050505b505050505050565b6000612ed382611f2b565b9150612ede83611f2b565b9250828201905080821115612ef657612ef5612bd3565b5b92915050565b600081519050919050565b600082825260208201905092915050565b6000612f2382612efc565b612f2d8185612f07565b9350612f3d818560208601611e95565b612f4681611ebf565b840191505092915050565b6000608082019050612f666000830187611fc0565b612f736020830186611fc0565b612f8060408301856120d6565b8181036060830152612f928184612f18565b905095945050505050565b600081519050612fac81611dea565b92915050565b600060208284031215612fc857612fc7611db4565b5b6000612fd684828501612f9d565b91505092915050565b7f4e487b7100000000000000000000000000000000000000000000000000000000600052601260045260246000fd5b60006040820190506130236000830185611fc0565b61303060208301846120d6565b939250505056fea264697066735822122089360d52eca4d18a1a17fb97aac662b4c071461eeae93460418f65f61661cf9264736f6c63430008140033",
  "linkReferences": {},
  "deployedLinkReferences": {}
}